{
  "contractName": "CommitRevealLottery",
  "abi": [
    {
      "inputs": [],
      "stateMutability": "nonpayable",
      "type": "constructor"
    },
    {
      "inputs": [],
      "name": "DURATION",
      "outputs": [
        {
          "internalType": "uint256",
          "name": "",
          "type": "uint256"
        }
      ],
      "stateMutability": "view",
      "type": "function",
      "constant": true
    },
    {
      "inputs": [],
      "name": "commitCloses",
      "outputs": [
        {
          "internalType": "uint256",
          "name": "",
          "type": "uint256"
        }
      ],
      "stateMutability": "view",
      "type": "function",
      "constant": true
    },
    {
      "inputs": [
        {
          "internalType": "address",
          "name": "",
          "type": "address"
        }
      ],
      "name": "commitments",
      "outputs": [
        {
          "internalType": "bytes32",
          "name": "",
          "type": "bytes32"
        }
      ],
      "stateMutability": "view",
      "type": "function",
      "constant": true
    },
    {
      "inputs": [
        {
          "internalType": "uint256",
          "name": "",
          "type": "uint256"
        }
      ],
      "name": "lotteryHistory",
      "outputs": [
        {
          "internalType": "address",
          "name": "",
          "type": "address"
        }
      ],
      "stateMutability": "view",
      "type": "function",
      "constant": true
    },
    {
      "inputs": [],
      "name": "lotteryId",
      "outputs": [
        {
          "internalType": "uint256",
          "name": "",
          "type": "uint256"
        }
      ],
      "stateMutability": "view",
      "type": "function",
      "constant": true
    },
    {
      "inputs": [
        {
          "internalType": "uint256",
          "name": "",
          "type": "uint256"
        }
      ],
      "name": "players",
      "outputs": [
        {
          "internalType": "address",
          "name": "",
          "type": "address"
        }
      ],
      "stateMutability": "view",
      "type": "function",
      "constant": true
    },
    {
      "inputs": [],
      "name": "revealCloses",
      "outputs": [
        {
          "internalType": "uint256",
          "name": "",
          "type": "uint256"
        }
      ],
      "stateMutability": "view",
      "type": "function",
      "constant": true
    },
    {
      "inputs": [],
      "name": "winner",
      "outputs": [
        {
          "internalType": "address",
          "name": "",
          "type": "address"
        }
      ],
      "stateMutability": "view",
      "type": "function",
      "constant": true
    },
    {
      "inputs": [],
      "name": "getBalance",
      "outputs": [
        {
          "internalType": "uint256",
          "name": "",
          "type": "uint256"
        }
      ],
      "stateMutability": "view",
      "type": "function",
      "constant": true
    },
    {
      "inputs": [
        {
          "internalType": "bytes32",
          "name": "commitment",
          "type": "bytes32"
        }
      ],
      "name": "enter",
      "outputs": [],
      "stateMutability": "payable",
      "type": "function",
      "payable": true
    },
    {
      "inputs": [
        {
          "internalType": "uint256",
          "name": "secret",
          "type": "uint256"
        }
      ],
      "name": "createCommitment",
      "outputs": [
        {
          "internalType": "bytes32",
          "name": "",
          "type": "bytes32"
        }
      ],
      "stateMutability": "view",
      "type": "function",
      "constant": true
    },
    {
      "inputs": [
        {
          "internalType": "uint256",
          "name": "secret",
          "type": "uint256"
        }
      ],
      "name": "reveal",
      "outputs": [],
      "stateMutability": "nonpayable",
      "type": "function"
    },
    {
      "inputs": [],
      "name": "pickWinner",
      "outputs": [],
      "stateMutability": "nonpayable",
      "type": "function"
    },
    {
      "inputs": [],
      "name": "withdrawPrize",
      "outputs": [],
      "stateMutability": "nonpayable",
      "type": "function"
    }
  ],
  "bytecode": "0x60806040523480156200001157600080fd5b506004436200002191906200007d565b60008190555060046000546200003891906200007d565b600181905550620000da565b6000819050919050565b7f4e487b7100000000000000000000000000000000000000000000000000000000600052601160045260246000fd5b60006200008a8262000044565b9150620000978362000044565b9250827fffffffffffffffffffffffffffffffffffffffffffffffffffffffffffffffff03821115620000cf57620000ce6200004e565b5b828201905092915050565b61142980620000ea6000396000f3fe6080604052600436106100dd5760003560e01c8063bcef097e1161007f578063e580f47b11610059578063e580f47b14610269578063e8fcf72314610294578063eb88d688146102d1578063f71d96cb1461030e576100dd565b8063bcef097e146101ea578063c2ca0ac514610215578063dfbf53ae1461023e576100dd565b806348d37a58116100bb57806348d37a5814610163578063568ab21e1461017a5780635d495aea146101965780636d6fe230146101ad576100dd565b806312065fe0146100e25780631be052891461010d5780634373fde514610138575b600080fd5b3480156100ee57600080fd5b506100f761034b565b6040516101049190610b65565b60405180910390f35b34801561011957600080fd5b50610122610353565b60405161012f9190610b65565b60405180910390f35b34801561014457600080fd5b5061014d610358565b60405161015a9190610b65565b60405180910390f35b34801561016f57600080fd5b5061017861035e565b005b610194600480360381019061018f9190610bbb565b6105a3565b005b3480156101a257600080fd5b506101ab610678565b005b3480156101b957600080fd5b506101d460048036038101906101cf9190610c14565b610871565b6040516101e19190610c82565b60405180910390f35b3480156101f657600080fd5b506101ff6108a4565b60405161020c9190610b65565b60405180910390f35b34801561022157600080fd5b5061023c60048036038101906102379190610c14565b6108aa565b005b34801561024a57600080fd5b50610253610a59565b6040516102609190610c82565b60405180910390f35b34801561027557600080fd5b5061027e610a7f565b60405161028b9190610b65565b60405180910390f35b3480156102a057600080fd5b506102bb60048036038101906102b69190610cc9565b610a85565b6040516102c89190610d05565b60405180910390f35b3480156102dd57600080fd5b506102f860048036038101906102f39190610c14565b610a9d565b6040516103059190610d05565b60405180910390f35b34801561031a57600080fd5b5061033560048036038101906103309190610c14565b610acf565b6040516103429190610c82565b60405180910390f35b600047905090565b600481565b60015481565b600460009054906101000a900473ffffffffffffffffffffffffffffffffffffffff1673ffffffffffffffffffffffffffffffffffffffff163373ffffffffffffffffffffffffffffffffffffffff16146103ee576040517f08c379a00000000000000000000000000000000000000000000000000000000081526004016103e590610d7d565b60405180910390fd5b600460006101000a81549073ffffffffffffffffffffffffffffffffffffffff021916905560005b6003805490508110156104b757600660006003838154811061043b5761043a610d9d565b5b9060005260206000200160009054906101000a900473ffffffffffffffffffffffffffffffffffffffff1673ffffffffffffffffffffffffffffffffffffffff1673ffffffffffffffffffffffffffffffffffffffff1681526020019081526020016000206000905580806104af90610dfb565b915050610416565b50600360006104c69190610b0e565b6005600090556004436104d99190610e43565b60008190555060046000546104ee9190610e43565b60018190555060003373ffffffffffffffffffffffffffffffffffffffff164760405161051a90610eca565b60006040518083038185875af1925050503d8060008114610557576040519150601f19603f3d011682016040523d82523d6000602084013e61055c565b606091505b50509050806105a0576040517f08c379a000000000000000000000000000000000000000000000000000000000815260040161059790610f2b565b60405180910390fd5b50565b662386f26fc100003410156105ed576040517f08c379a00000000000000000000000000000000000000000000000000000000081526004016105e490610fbd565b60405180910390fd5b6000544310610631576040517f08c379a000000000000000000000000000000000000000000000000000000000815260040161062890611029565b60405180910390fd5b80600660003373ffffffffffffffffffffffffffffffffffffffff1673ffffffffffffffffffffffffffffffffffffffff1681526020019081526020016000208190555050565b6001544310156106bd576040517f08c379a00000000000000000000000000000000000000000000000000000000081526004016106b490611095565b60405180910390fd5b600073ffffffffffffffffffffffffffffffffffffffff16600460009054906101000a900473ffffffffffffffffffffffffffffffffffffffff1673ffffffffffffffffffffffffffffffffffffffff161461074e576040517f08c379a000000000000000000000000000000000000000000000000000000000815260040161074590611101565b60405180910390fd5b6003808054905060055460001c6107659190611150565b8154811061077657610775610d9d565b5b9060005260206000200160009054906101000a900473ffffffffffffffffffffffffffffffffffffffff16600460006101000a81548173ffffffffffffffffffffffffffffffffffffffff021916908373ffffffffffffffffffffffffffffffffffffffff160217905550600460009054906101000a900473ffffffffffffffffffffffffffffffffffffffff1660076000600254815260200190815260200160002060006101000a81548173ffffffffffffffffffffffffffffffffffffffff021916908373ffffffffffffffffffffffffffffffffffffffff1602179055506002600081548092919061086a90610dfb565b9190505550565b60076020528060005260406000206000915054906101000a900473ffffffffffffffffffffffffffffffffffffffff1681565b60005481565b6000544310156108ef576040517f08c379a00000000000000000000000000000000000000000000000000000000081526004016108e6906111f3565b60405180910390fd5b6001544310610933576040517f08c379a000000000000000000000000000000000000000000000000000000000815260040161092a90611285565b60405180910390fd5b600061093e82610a9d565b9050600660003373ffffffffffffffffffffffffffffffffffffffff1673ffffffffffffffffffffffffffffffffffffffff1681526020019081526020016000205481146109c1576040517f08c379a00000000000000000000000000000000000000000000000000000000081526004016109b8906112f1565b60405180910390fd5b600554826040516020016109d6929190611353565b604051602081830303815290604052805190602001206005819055506003339080600181540180825580915050600190039060005260206000200160009091909190916101000a81548173ffffffffffffffffffffffffffffffffffffffff021916908373ffffffffffffffffffffffffffffffffffffffff1602179055505050565b600460009054906101000a900473ffffffffffffffffffffffffffffffffffffffff1681565b60025481565b60066020528060005260406000206000915090505481565b60003382604051602001610ab29291906113c7565b604051602081830303815290604052805190602001209050919050565b60038181548110610adf57600080fd5b906000526020600020016000915054906101000a900473ffffffffffffffffffffffffffffffffffffffff1681565b5080546000825590600052602060002090810190610b2c9190610b2f565b50565b5b80821115610b48576000816000905550600101610b30565b5090565b6000819050919050565b610b5f81610b4c565b82525050565b6000602082019050610b7a6000830184610b56565b92915050565b600080fd5b6000819050919050565b610b9881610b85565b8114610ba357600080fd5b50565b600081359050610bb581610b8f565b92915050565b600060208284031215610bd157610bd0610b80565b5b6000610bdf84828501610ba6565b91505092915050565b610bf181610b4c565b8114610bfc57600080fd5b50565b600081359050610c0e81610be8565b92915050565b600060208284031215610c2a57610c29610b80565b5b6000610c3884828501610bff565b91505092915050565b600073ffffffffffffffffffffffffffffffffffffffff82169050919050565b6000610c6c82610c41565b9050919050565b610c7c81610c61565b82525050565b6000602082019050610c976000830184610c73565b92915050565b610ca681610c61565b8114610cb157600080fd5b50565b600081359050610cc381610c9d565b92915050565b600060208284031215610cdf57610cde610b80565b5b6000610ced84828501610cb4565b91505092915050565b610cff81610b85565b82525050565b6000602082019050610d1a6000830184610cf6565b92915050565b600082825260208201905092915050565b7f596f75277265206e6f742077696e6e6572000000000000000000000000000000600082015250565b6000610d67601183610d20565b9150610d7282610d31565b602082019050919050565b60006020820190508181036000830152610d9681610d5a565b9050919050565b7f4e487b7100000000000000000000000000000000000000000000000000000000600052603260045260246000fd5b7f4e487b7100000000000000000000000000000000000000000000000000000000600052601160045260246000fd5b6000610e0682610b4c565b91507fffffffffffffffffffffffffffffffffffffffffffffffffffffffffffffffff8203610e3857610e37610dcc565b5b600182019050919050565b6000610e4e82610b4c565b9150610e5983610b4c565b9250827fffffffffffffffffffffffffffffffffffffffffffffffffffffffffffffffff03821115610e8e57610e8d610dcc565b5b828201905092915050565b600081905092915050565b50565b6000610eb4600083610e99565b9150610ebf82610ea4565b600082019050919050565b6000610ed582610ea7565b9150819050919050565b7f4661696c656420746f2073656e6420657468657220746f2077696e6e65720000600082015250565b6000610f15601e83610d20565b9150610f2082610edf565b602082019050919050565b60006020820190508181036000830152610f4481610f08565b9050919050565b7f6d73672e76616c75652073686f756c642062652067726561746572207468616e60008201527f206f7220657175616c20746f20302e3031206574686572000000000000000000602082015250565b6000610fa7603783610d20565b9150610fb282610f4b565b604082019050919050565b60006020820190508181036000830152610fd681610f9a565b9050919050565b7f636f6d6d6974206475726174696f6e206973206f766572000000000000000000600082015250565b6000611013601783610d20565b915061101e82610fdd565b602082019050919050565b6000602082019050818103600083015261104281611006565b9050919050565b7f4e6f742079657420746f207069636b2077696e6e657200000000000000000000600082015250565b600061107f601683610d20565b915061108a82611049565b602082019050919050565b600060208201905081810360008301526110ae81611072565b9050919050565b7f77696e6e657220697320616c7265616479207365740000000000000000000000600082015250565b60006110eb601583610d20565b91506110f6826110b5565b602082019050919050565b6000602082019050818103600083015261111a816110de565b9050919050565b7f4e487b7100000000000000000000000000000000000000000000000000000000600052601260045260246000fd5b600061115b82610b4c565b915061116683610b4c565b92508261117657611175611121565b5b828206905092915050565b7f636f6d6d6974206475726174696f6e206973206e6f7420636c6f73656420796560008201527f7400000000000000000000000000000000000000000000000000000000000000602082015250565b60006111dd602183610d20565b91506111e882611181565b604082019050919050565b6000602082019050818103600083015261120c816111d0565b9050919050565b7f72657665616c206475726174696f6e20697320616c726561647920636c6f736560008201527f6400000000000000000000000000000000000000000000000000000000000000602082015250565b600061126f602183610d20565b915061127a82611213565b604082019050919050565b6000602082019050818103600083015261129e81611262565b9050919050565b7f636f6d6d6974206e6f74206d6174636865730000000000000000000000000000600082015250565b60006112db601283610d20565b91506112e6826112a5565b602082019050919050565b6000602082019050818103600083015261130a816112ce565b9050919050565b6000819050919050565b61132c61132782610b85565b611311565b82525050565b6000819050919050565b61134d61134882610b4c565b611332565b82525050565b600061135f828561131b565b60208201915061136f828461133c565b6020820191508190509392505050565b60008160601b9050919050565b60006113978261137f565b9050919050565b60006113a98261138c565b9050919050565b6113c16113bc82610c61565b61139e565b82525050565b60006113d382856113b0565b6014820191506113e3828461133c565b602082019150819050939250505056fea264697066735822122031248fc36bf7717b239227f5e3b85e78c6540602b875e834eb56b6877df23fa664736f6c634300080f0033",
  "immutableReferences": {},
  "source": "// SPDX-License-Identifier: MIT\npragma solidity ^0.8.15;\n\ncontract CommitRevealLottery {\n  uint256 public commitCloses;\n  uint256 public revealCloses;\n  uint256 public constant DURATION = 4;\n\n  uint256 public lotteryId;\n  address[] public players;\n  address public winner;\n  bytes32 seed;\n  mapping(address => bytes32) public commitments;\n  mapping(uint256 => address) public lotteryHistory;\n\n  constructor() {\n    commitCloses = block.number + DURATION;\n    revealCloses = commitCloses + DURATION;\n  }\n\n  function getBalance() public view returns(uint256) {\n    return address(this).balance;\n  }\n\n  function enter(bytes32 commitment) public payable {\n    require(msg.value >= 0.01 ether, \"msg.value should be greater than or equal to 0.01 ether\");\n    require(block.number < commitCloses, \"commit duration is over\");\n\n    commitments[msg.sender] = commitment;\n  }\n\n  function createCommitment(uint256 secret) public view returns (bytes32) {\n    return keccak256(abi.encodePacked(msg.sender, secret));\n  }\n\n  function reveal(uint256 secret) public {\n    require(block.number >= commitCloses, \"commit duration is not closed yet\");\n    require(block.number < revealCloses, \"reveal duration is already closed\");\n\n    bytes32 commit = createCommitment(secret);\n    require(commit == commitments[msg.sender], \"commit not matches\");\n\n    seed = keccak256(abi.encodePacked(seed, secret));\n    players.push(msg.sender);\n  }\n\n  function pickWinner() public {\n    require(block.number >= revealCloses, \"Not yet to pick winner\");\n    require(winner == address(0), \"winner is already set\");\n\n    winner = players[uint256(seed) % players.length];\n\n    lotteryHistory[lotteryId] = winner;\n    lotteryId++;\n  }\n\n  function withdrawPrize() public {\n    require(msg.sender == winner, \"You're not winner\");\n\n    delete winner;\n    for(uint256 i = 0 ; i < players.length ; i++) {\n      delete commitments[players[i]];\n    }\n    delete players;\n    delete seed;\n\n    commitCloses = block.number + DURATION;\n    revealCloses = commitCloses + DURATION;\n\n    (bool success, ) = payable(msg.sender).call{value: address(this).balance}(\"\");\n    require(success, \"Failed to send ether to winner\");\n  }\n}",
  "sourcePath": "/Users/subin/projects/truffle/contracts/CommitRevealLottery.sol",
  "compiler": {
    "name": "solc",
    "version": "0.8.15+commit.e14f2714.Emscripten.clang"
  },
  "schemaVersion": "3.4.13",
  "updatedAt": "2023-05-14T09:37:29.209Z",
  "networkType": "ethereum",
  "devdoc": {
    "kind": "dev",
    "methods": {},
    "version": 1
  },
  "userdoc": {
    "kind": "user",
    "methods": {},
    "version": 1
  }
}