{
  "contractName": "CommitRevealLottery",
  "abi": [
    {
      "inputs": [],
      "stateMutability": "nonpayable",
      "type": "constructor"
    },
    {
      "inputs": [],
      "name": "DURATION",
      "outputs": [
        {
          "internalType": "uint256",
          "name": "",
          "type": "uint256"
        }
      ],
      "stateMutability": "view",
      "type": "function"
    },
    {
      "inputs": [],
      "name": "commitCloses",
      "outputs": [
        {
          "internalType": "uint256",
          "name": "",
          "type": "uint256"
        }
      ],
      "stateMutability": "view",
      "type": "function"
    },
    {
      "inputs": [
        {
          "internalType": "address",
          "name": "",
          "type": "address"
        }
      ],
      "name": "commitments",
      "outputs": [
        {
          "internalType": "bytes32",
          "name": "",
          "type": "bytes32"
        }
      ],
      "stateMutability": "view",
      "type": "function"
    },
    {
      "inputs": [
        {
          "internalType": "uint256",
          "name": "",
          "type": "uint256"
        }
      ],
      "name": "lotteryHistory",
      "outputs": [
        {
          "internalType": "address",
          "name": "",
          "type": "address"
        }
      ],
      "stateMutability": "view",
      "type": "function"
    },
    {
      "inputs": [],
      "name": "lotteryId",
      "outputs": [
        {
          "internalType": "uint256",
          "name": "",
          "type": "uint256"
        }
      ],
      "stateMutability": "view",
      "type": "function"
    },
    {
      "inputs": [
        {
          "internalType": "uint256",
          "name": "",
          "type": "uint256"
        }
      ],
      "name": "players",
      "outputs": [
        {
          "internalType": "address",
          "name": "",
          "type": "address"
        }
      ],
      "stateMutability": "view",
      "type": "function"
    },
    {
      "inputs": [],
      "name": "revealCloses",
      "outputs": [
        {
          "internalType": "uint256",
          "name": "",
          "type": "uint256"
        }
      ],
      "stateMutability": "view",
      "type": "function"
    },
    {
      "inputs": [],
      "name": "winner",
      "outputs": [
        {
          "internalType": "address",
          "name": "",
          "type": "address"
        }
      ],
      "stateMutability": "view",
      "type": "function"
    },
    {
      "inputs": [],
      "name": "getBalance",
      "outputs": [
        {
          "internalType": "uint256",
          "name": "",
          "type": "uint256"
        }
      ],
      "stateMutability": "view",
      "type": "function"
    },
    {
      "inputs": [
        {
          "internalType": "bytes32",
          "name": "commitment",
          "type": "bytes32"
        }
      ],
      "name": "enter",
      "outputs": [],
      "stateMutability": "payable",
      "type": "function"
    },
    {
      "inputs": [
        {
          "internalType": "uint256",
          "name": "secret",
          "type": "uint256"
        }
      ],
      "name": "createCommitment",
      "outputs": [
        {
          "internalType": "bytes32",
          "name": "",
          "type": "bytes32"
        }
      ],
      "stateMutability": "view",
      "type": "function"
    },
    {
      "inputs": [],
      "name": "isAlreadyRevealed",
      "outputs": [
        {
          "internalType": "bool",
          "name": "",
          "type": "bool"
        }
      ],
      "stateMutability": "view",
      "type": "function"
    },
    {
      "inputs": [
        {
          "internalType": "uint256",
          "name": "secret",
          "type": "uint256"
        }
      ],
      "name": "reveal",
      "outputs": [],
      "stateMutability": "nonpayable",
      "type": "function"
    },
    {
      "inputs": [],
      "name": "pickWinner",
      "outputs": [],
      "stateMutability": "nonpayable",
      "type": "function"
    },
    {
      "inputs": [],
      "name": "withdrawPrize",
      "outputs": [],
      "stateMutability": "nonpayable",
      "type": "function"
    }
  ],
  "bytecode": "0x60806040523480156200001157600080fd5b506004436200002191906200007d565b60008190555060046000546200003891906200007d565b600181905550620000da565b6000819050919050565b7f4e487b7100000000000000000000000000000000000000000000000000000000600052601160045260246000fd5b60006200008a8262000044565b9150620000978362000044565b9250827fffffffffffffffffffffffffffffffffffffffffffffffffffffffffffffffff03821115620000cf57620000ce6200004e565b5b828201905092915050565b6115f580620000ea6000396000f3fe6080604052600436106100e85760003560e01c80636d6fe2301161008a578063e580f47b11610059578063e580f47b1461029f578063e8fcf723146102ca578063eb88d68814610307578063f71d96cb14610344576100e8565b80636d6fe230146101e3578063bcef097e14610220578063c2ca0ac51461024b578063dfbf53ae14610274576100e8565b80634373fde5116100c65780634373fde51461016e57806348d37a5814610199578063568ab21e146101b05780635d495aea146101cc576100e8565b806312065fe0146100ed5780631be0528914610118578063216af0b414610143575b600080fd5b3480156100f957600080fd5b50610102610381565b60405161010f9190610c8f565b60405180910390f35b34801561012457600080fd5b5061012d610389565b60405161013a9190610c8f565b60405180910390f35b34801561014f57600080fd5b5061015861038e565b6040516101659190610cc5565b60405180910390f35b34801561017a57600080fd5b5061018361043a565b6040516101909190610c8f565b60405180910390f35b3480156101a557600080fd5b506101ae610440565b005b6101ca60048036038101906101c59190610d1b565b610685565b005b3480156101d857600080fd5b506101e161075a565b005b3480156101ef57600080fd5b5061020a60048036038101906102059190610d74565b610953565b6040516102179190610de2565b60405180910390f35b34801561022c57600080fd5b50610235610986565b6040516102429190610c8f565b60405180910390f35b34801561025757600080fd5b50610272600480360381019061026d9190610d74565b61098c565b005b34801561028057600080fd5b50610289610b83565b6040516102969190610de2565b60405180910390f35b3480156102ab57600080fd5b506102b4610ba9565b6040516102c19190610c8f565b60405180910390f35b3480156102d657600080fd5b506102f160048036038101906102ec9190610e29565b610baf565b6040516102fe9190610e65565b60405180910390f35b34801561031357600080fd5b5061032e60048036038101906103299190610d74565b610bc7565b60405161033b9190610e65565b60405180910390f35b34801561035057600080fd5b5061036b60048036038101906103669190610d74565b610bf9565b6040516103789190610de2565b60405180910390f35b600047905090565b600481565b600080600090505b60038054905081101561043157600381815481106103b7576103b6610e80565b5b9060005260206000200160009054906101000a900473ffffffffffffffffffffffffffffffffffffffff1673ffffffffffffffffffffffffffffffffffffffff163373ffffffffffffffffffffffffffffffffffffffff160361041e576001915050610437565b808061042990610ede565b915050610396565b50600090505b90565b60015481565b600460009054906101000a900473ffffffffffffffffffffffffffffffffffffffff1673ffffffffffffffffffffffffffffffffffffffff163373ffffffffffffffffffffffffffffffffffffffff16146104d0576040517f08c379a00000000000000000000000000000000000000000000000000000000081526004016104c790610f83565b60405180910390fd5b600460006101000a81549073ffffffffffffffffffffffffffffffffffffffff021916905560005b60038054905081101561059957600660006003838154811061051d5761051c610e80565b5b9060005260206000200160009054906101000a900473ffffffffffffffffffffffffffffffffffffffff1673ffffffffffffffffffffffffffffffffffffffff1673ffffffffffffffffffffffffffffffffffffffff16815260200190815260200160002060009055808061059190610ede565b9150506104f8565b50600360006105a89190610c38565b6005600090556004436105bb9190610fa3565b60008190555060046000546105d09190610fa3565b60018190555060003373ffffffffffffffffffffffffffffffffffffffff16476040516105fc9061102a565b60006040518083038185875af1925050503d8060008114610639576040519150601f19603f3d011682016040523d82523d6000602084013e61063e565b606091505b5050905080610682576040517f08c379a00000000000000000000000000000000000000000000000000000000081526004016106799061108b565b60405180910390fd5b50565b662386f26fc100003410156106cf576040517f08c379a00000000000000000000000000000000000000000000000000000000081526004016106c69061111d565b60405180910390fd5b6000544310610713576040517f08c379a000000000000000000000000000000000000000000000000000000000815260040161070a90611189565b60405180910390fd5b80600660003373ffffffffffffffffffffffffffffffffffffffff1673ffffffffffffffffffffffffffffffffffffffff1681526020019081526020016000208190555050565b60015443101561079f576040517f08c379a0000000000000000000000000000000000000000000000000000000008152600401610796906111f5565b60405180910390fd5b600073ffffffffffffffffffffffffffffffffffffffff16600460009054906101000a900473ffffffffffffffffffffffffffffffffffffffff1673ffffffffffffffffffffffffffffffffffffffff1614610830576040517f08c379a000000000000000000000000000000000000000000000000000000000815260040161082790611261565b60405180910390fd5b6003808054905060055460001c61084791906112b0565b8154811061085857610857610e80565b5b9060005260206000200160009054906101000a900473ffffffffffffffffffffffffffffffffffffffff16600460006101000a81548173ffffffffffffffffffffffffffffffffffffffff021916908373ffffffffffffffffffffffffffffffffffffffff160217905550600460009054906101000a900473ffffffffffffffffffffffffffffffffffffffff1660076000600254815260200190815260200160002060006101000a81548173ffffffffffffffffffffffffffffffffffffffff021916908373ffffffffffffffffffffffffffffffffffffffff1602179055506002600081548092919061094c90610ede565b9190505550565b60076020528060005260406000206000915054906101000a900473ffffffffffffffffffffffffffffffffffffffff1681565b60005481565b6000544310156109d1576040517f08c379a00000000000000000000000000000000000000000000000000000000081526004016109c890611353565b60405180910390fd5b6001544310610a15576040517f08c379a0000000000000000000000000000000000000000000000000000000008152600401610a0c906113e5565b60405180910390fd5b610a1d61038e565b15610a5d576040517f08c379a0000000000000000000000000000000000000000000000000000000008152600401610a5490611451565b60405180910390fd5b6000610a6882610bc7565b9050600660003373ffffffffffffffffffffffffffffffffffffffff1673ffffffffffffffffffffffffffffffffffffffff168152602001908152602001600020548114610aeb576040517f08c379a0000000000000000000000000000000000000000000000000000000008152600401610ae2906114bd565b60405180910390fd5b60055482604051602001610b0092919061151f565b604051602081830303815290604052805190602001206005819055506003339080600181540180825580915050600190039060005260206000200160009091909190916101000a81548173ffffffffffffffffffffffffffffffffffffffff021916908373ffffffffffffffffffffffffffffffffffffffff1602179055505050565b600460009054906101000a900473ffffffffffffffffffffffffffffffffffffffff1681565b60025481565b60066020528060005260406000206000915090505481565b60003382604051602001610bdc929190611593565b604051602081830303815290604052805190602001209050919050565b60038181548110610c0957600080fd5b906000526020600020016000915054906101000a900473ffffffffffffffffffffffffffffffffffffffff1681565b5080546000825590600052602060002090810190610c569190610c59565b50565b5b80821115610c72576000816000905550600101610c5a565b5090565b6000819050919050565b610c8981610c76565b82525050565b6000602082019050610ca46000830184610c80565b92915050565b60008115159050919050565b610cbf81610caa565b82525050565b6000602082019050610cda6000830184610cb6565b92915050565b600080fd5b6000819050919050565b610cf881610ce5565b8114610d0357600080fd5b50565b600081359050610d1581610cef565b92915050565b600060208284031215610d3157610d30610ce0565b5b6000610d3f84828501610d06565b91505092915050565b610d5181610c76565b8114610d5c57600080fd5b50565b600081359050610d6e81610d48565b92915050565b600060208284031215610d8a57610d89610ce0565b5b6000610d9884828501610d5f565b91505092915050565b600073ffffffffffffffffffffffffffffffffffffffff82169050919050565b6000610dcc82610da1565b9050919050565b610ddc81610dc1565b82525050565b6000602082019050610df76000830184610dd3565b92915050565b610e0681610dc1565b8114610e1157600080fd5b50565b600081359050610e2381610dfd565b92915050565b600060208284031215610e3f57610e3e610ce0565b5b6000610e4d84828501610e14565b91505092915050565b610e5f81610ce5565b82525050565b6000602082019050610e7a6000830184610e56565b92915050565b7f4e487b7100000000000000000000000000000000000000000000000000000000600052603260045260246000fd5b7f4e487b7100000000000000000000000000000000000000000000000000000000600052601160045260246000fd5b6000610ee982610c76565b91507fffffffffffffffffffffffffffffffffffffffffffffffffffffffffffffffff8203610f1b57610f1a610eaf565b5b600182019050919050565b600082825260208201905092915050565b7f596f75277265206e6f742077696e6e6572000000000000000000000000000000600082015250565b6000610f6d601183610f26565b9150610f7882610f37565b602082019050919050565b60006020820190508181036000830152610f9c81610f60565b9050919050565b6000610fae82610c76565b9150610fb983610c76565b9250827fffffffffffffffffffffffffffffffffffffffffffffffffffffffffffffffff03821115610fee57610fed610eaf565b5b828201905092915050565b600081905092915050565b50565b6000611014600083610ff9565b915061101f82611004565b600082019050919050565b600061103582611007565b9150819050919050565b7f4661696c656420746f2073656e6420657468657220746f2077696e6e65720000600082015250565b6000611075601e83610f26565b91506110808261103f565b602082019050919050565b600060208201905081810360008301526110a481611068565b9050919050565b7f6d73672e76616c75652073686f756c642062652067726561746572207468616e60008201527f206f7220657175616c20746f20302e3031206574686572000000000000000000602082015250565b6000611107603783610f26565b9150611112826110ab565b604082019050919050565b60006020820190508181036000830152611136816110fa565b9050919050565b7f636f6d6d6974206475726174696f6e206973206f766572000000000000000000600082015250565b6000611173601783610f26565b915061117e8261113d565b602082019050919050565b600060208201905081810360008301526111a281611166565b9050919050565b7f4e6f742079657420746f207069636b2077696e6e657200000000000000000000600082015250565b60006111df601683610f26565b91506111ea826111a9565b602082019050919050565b6000602082019050818103600083015261120e816111d2565b9050919050565b7f77696e6e657220697320616c7265616479207365740000000000000000000000600082015250565b600061124b601583610f26565b915061125682611215565b602082019050919050565b6000602082019050818103600083015261127a8161123e565b9050919050565b7f4e487b7100000000000000000000000000000000000000000000000000000000600052601260045260246000fd5b60006112bb82610c76565b91506112c683610c76565b9250826112d6576112d5611281565b5b828206905092915050565b7f636f6d6d6974206475726174696f6e206973206e6f7420636c6f73656420796560008201527f7400000000000000000000000000000000000000000000000000000000000000602082015250565b600061133d602183610f26565b9150611348826112e1565b604082019050919050565b6000602082019050818103600083015261136c81611330565b9050919050565b7f72657665616c206475726174696f6e20697320616c726561647920636c6f736560008201527f6400000000000000000000000000000000000000000000000000000000000000602082015250565b60006113cf602183610f26565b91506113da82611373565b604082019050919050565b600060208201905081810360008301526113fe816113c2565b9050919050565b7f596f7520616c72656164792072657665616c6564000000000000000000000000600082015250565b600061143b601483610f26565b915061144682611405565b602082019050919050565b6000602082019050818103600083015261146a8161142e565b9050919050565b7f636f6d6d6974206e6f74206d6174636865730000000000000000000000000000600082015250565b60006114a7601283610f26565b91506114b282611471565b602082019050919050565b600060208201905081810360008301526114d68161149a565b9050919050565b6000819050919050565b6114f86114f382610ce5565b6114dd565b82525050565b6000819050919050565b61151961151482610c76565b6114fe565b82525050565b600061152b82856114e7565b60208201915061153b8284611508565b6020820191508190509392505050565b60008160601b9050919050565b60006115638261154b565b9050919050565b600061157582611558565b9050919050565b61158d61158882610dc1565b61156a565b82525050565b600061159f828561157c565b6014820191506115af8284611508565b602082019150819050939250505056fea2646970667358221220db9eaf2fb73cd9f195c8ab15fff6dbb30c6de5db821906be5600425ac1e594bf64736f6c634300080f0033",
  "immutableReferences": {},
  "source": "// SPDX-License-Identifier: MIT\npragma solidity ^0.8.15;\n\ncontract CommitRevealLottery {\n  uint256 public commitCloses;\n  uint256 public revealCloses;\n  uint256 public constant DURATION = 4;\n\n  uint256 public lotteryId;\n  address[] public players;\n  address public winner;\n  bytes32 seed;\n  mapping(address => bytes32) public commitments;\n  mapping(uint256 => address) public lotteryHistory;\n\n  constructor() {\n    commitCloses = block.number + DURATION;\n    revealCloses = commitCloses + DURATION;\n  }\n\n  function getBalance() public view returns(uint256) {\n    return address(this).balance;\n  }\n\n  function enter(bytes32 commitment) public payable {\n    require(msg.value >= 0.01 ether, \"msg.value should be greater than or equal to 0.01 ether\");\n    require(block.number < commitCloses, \"commit duration is over\");\n\n    commitments[msg.sender] = commitment;\n  }\n\n  function createCommitment(uint256 secret) public view returns (bytes32) {\n    return keccak256(abi.encodePacked(msg.sender, secret));\n  }\n\n  function isAlreadyRevealed() public view returns (bool) {\n      for(uint256 i = 0 ; i < players.length ; i++) {\n          if(msg.sender == players[i]) {\n              return true;\n          }\n      }\n      return false;\n  }\n\n  function reveal(uint256 secret) public {\n    require(block.number >= commitCloses, \"commit duration is not closed yet\");\n    require(block.number < revealCloses, \"reveal duration is already closed\");\n    require(!isAlreadyRevealed(), \"You already revealed\");\n\n    bytes32 commit = createCommitment(secret);\n    require(commit == commitments[msg.sender], \"commit not matches\");\n\n    seed = keccak256(abi.encodePacked(seed, secret));\n    players.push(msg.sender);\n  }\n\n  function pickWinner() public {\n    require(block.number >= revealCloses, \"Not yet to pick winner\");\n    require(winner == address(0), \"winner is already set\");\n\n    winner = players[uint256(seed) % players.length];\n\n    lotteryHistory[lotteryId] = winner;\n    lotteryId++;\n  }\n\n  function withdrawPrize() public {\n    require(msg.sender == winner, \"You're not winner\");\n\n    delete winner;\n    for(uint256 i = 0 ; i < players.length ; i++) {\n      delete commitments[players[i]];\n    }\n    delete players;\n    delete seed;\n\n    commitCloses = block.number + DURATION;\n    revealCloses = commitCloses + DURATION;\n\n    (bool success, ) = payable(msg.sender).call{value: address(this).balance}(\"\");\n    require(success, \"Failed to send ether to winner\");\n  }\n}",
  "sourcePath": "/Users/subin/projects/truffle/contracts/CommitRevealLottery.sol",
  "compiler": {
    "name": "solc",
    "version": "0.8.15+commit.e14f2714.Emscripten.clang"
  },
  "schemaVersion": "3.4.13",
  "updatedAt": "2023-05-15T09:27:15.552Z",
  "devdoc": {
    "kind": "dev",
    "methods": {},
    "version": 1
  },
  "userdoc": {
    "kind": "user",
    "methods": {},
    "version": 1
  }
}