{
  "contractName": "Lottery",
  "abi": [
    {
      "inputs": [],
      "stateMutability": "nonpayable",
      "type": "constructor"
    },
    {
      "inputs": [
        {
          "internalType": "uint256",
          "name": "",
          "type": "uint256"
        }
      ],
      "name": "lotteryHistory",
      "outputs": [
        {
          "internalType": "address",
          "name": "",
          "type": "address"
        }
      ],
      "stateMutability": "view",
      "type": "function"
    },
    {
      "inputs": [],
      "name": "lotteryId",
      "outputs": [
        {
          "internalType": "uint256",
          "name": "",
          "type": "uint256"
        }
      ],
      "stateMutability": "view",
      "type": "function"
    },
    {
      "inputs": [],
      "name": "owner",
      "outputs": [
        {
          "internalType": "address",
          "name": "",
          "type": "address"
        }
      ],
      "stateMutability": "view",
      "type": "function"
    },
    {
      "inputs": [
        {
          "internalType": "uint256",
          "name": "",
          "type": "uint256"
        }
      ],
      "name": "players",
      "outputs": [
        {
          "internalType": "address payable",
          "name": "",
          "type": "address"
        }
      ],
      "stateMutability": "view",
      "type": "function"
    },
    {
      "inputs": [],
      "name": "getBalance",
      "outputs": [
        {
          "internalType": "uint256",
          "name": "",
          "type": "uint256"
        }
      ],
      "stateMutability": "view",
      "type": "function"
    },
    {
      "inputs": [],
      "name": "getPlayers",
      "outputs": [
        {
          "internalType": "address payable[]",
          "name": "",
          "type": "address[]"
        }
      ],
      "stateMutability": "view",
      "type": "function"
    },
    {
      "inputs": [],
      "name": "enter",
      "outputs": [],
      "stateMutability": "payable",
      "type": "function"
    },
    {
      "inputs": [],
      "name": "getRandomNumber",
      "outputs": [
        {
          "internalType": "uint256",
          "name": "",
          "type": "uint256"
        }
      ],
      "stateMutability": "view",
      "type": "function"
    },
    {
      "inputs": [],
      "name": "getRandomNumberV2",
      "outputs": [
        {
          "internalType": "uint256",
          "name": "",
          "type": "uint256"
        }
      ],
      "stateMutability": "view",
      "type": "function"
    },
    {
      "inputs": [],
      "name": "getRandomNumberV3",
      "outputs": [
        {
          "internalType": "uint256",
          "name": "",
          "type": "uint256"
        }
      ],
      "stateMutability": "view",
      "type": "function"
    },
    {
      "inputs": [],
      "name": "pickWinner",
      "outputs": [],
      "stateMutability": "nonpayable",
      "type": "function"
    }
  ],
  "bytecode": "0x608060405234801561001057600080fd5b50336000806101000a81548173ffffffffffffffffffffffffffffffffffffffff021916908373ffffffffffffffffffffffffffffffffffffffff160217905550611010806100606000396000f3fe60806040526004361061009c5760003560e01c80638b5b9ccc116100645780638b5b9ccc146101765780638da5cb5b146101a1578063dbdff2c1146101cc578063e580f47b146101f7578063e97dcb6214610222578063f71d96cb1461022c5761009c565b806312065fe0146100a157806347b89533146100cc5780635d495aea146100f75780636793aa141461010e5780636d6fe23014610139575b600080fd5b3480156100ad57600080fd5b506100b6610269565b6040516100c3919061087c565b60405180910390f35b3480156100d857600080fd5b506100e1610271565b6040516100ee919061087c565b60405180910390f35b34801561010357600080fd5b5061010c6102b1565b005b34801561011a57600080fd5b50610123610559565b604051610130919061087c565b60405180910390f35b34801561014557600080fd5b50610160600480360381019061015b91906108c8565b61058f565b60405161016d9190610936565b60405180910390f35b34801561018257600080fd5b5061018b6105c2565b6040516101989190610a21565b60405180910390f35b3480156101ad57600080fd5b506101b6610650565b6040516101c39190610936565b60405180910390f35b3480156101d857600080fd5b506101e1610674565b6040516101ee919061087c565b60405180910390f35b34801561020357600080fd5b5061020c6106c8565b604051610219919061087c565b60405180910390f35b61022a6106ce565b005b34801561023857600080fd5b50610253600480360381019061024e91906108c8565b61077d565b6040516102609190610a52565b60405180910390f35b600047905090565b60006001436102809190610a9c565b4042604051602001610293929190610b1c565b6040516020818303038152906040528051906020012060001c905090565b60008054906101000a900473ffffffffffffffffffffffffffffffffffffffff1673ffffffffffffffffffffffffffffffffffffffff163373ffffffffffffffffffffffffffffffffffffffff161461033f576040517f08c379a000000000000000000000000000000000000000000000000000000000815260040161033690610ba5565b60405180910390fd5b600060018054905061034f610271565b6103599190610bf4565b90506001818154811061036f5761036e610c25565b5b9060005260206000200160009054906101000a900473ffffffffffffffffffffffffffffffffffffffff1660036000600254815260200190815260200160002060006101000a81548173ffffffffffffffffffffffffffffffffffffffff021916908373ffffffffffffffffffffffffffffffffffffffff1602179055506002600081548092919061040090610c54565b919050555060006001828154811061041b5761041a610c25565b5b9060005260206000200160009054906101000a900473ffffffffffffffffffffffffffffffffffffffff169050600067ffffffffffffffff81111561046357610462610c9c565b5b6040519080825280602002602001820160405280156104915781602001602082028036833780820191505090505b50600190805190602001906104a79291906107bc565b5060008173ffffffffffffffffffffffffffffffffffffffff16476040516104ce90610cfc565b60006040518083038185875af1925050503d806000811461050b576040519150601f19603f3d011682016040523d82523d6000602084013e610510565b606091505b5050905080610554576040517f08c379a000000000000000000000000000000000000000000000000000000000815260040161054b90610d5d565b60405180910390fd5b505050565b60004442600160405160200161057193929190610e9b565b6040516020818303038152906040528051906020012060001c905090565b60036020528060005260406000206000915054906101000a900473ffffffffffffffffffffffffffffffffffffffff1681565b6060600180548060200260200160405190810160405280929190818152602001828054801561064657602002820191906000526020600020905b8160009054906101000a900473ffffffffffffffffffffffffffffffffffffffff1673ffffffffffffffffffffffffffffffffffffffff16815260200190600101908083116105fc575b5050505050905090565b60008054906101000a900473ffffffffffffffffffffffffffffffffffffffff1681565b60008060009054906101000a900473ffffffffffffffffffffffffffffffffffffffff16426040516020016106aa929190610f1c565b6040516020818303038152906040528051906020012060001c905090565b60025481565b662386f26fc10000341015610718576040517f08c379a000000000000000000000000000000000000000000000000000000000815260040161070f90610fba565b60405180910390fd5b6001339080600181540180825580915050600190039060005260206000200160009091909190916101000a81548173ffffffffffffffffffffffffffffffffffffffff021916908373ffffffffffffffffffffffffffffffffffffffff160217905550565b6001818154811061078d57600080fd5b906000526020600020016000915054906101000a900473ffffffffffffffffffffffffffffffffffffffff1681565b828054828255906000526020600020908101928215610835579160200282015b828111156108345782518260006101000a81548173ffffffffffffffffffffffffffffffffffffffff021916908373ffffffffffffffffffffffffffffffffffffffff160217905550916020019190600101906107dc565b5b5090506108429190610846565b5090565b5b8082111561085f576000816000905550600101610847565b5090565b6000819050919050565b61087681610863565b82525050565b6000602082019050610891600083018461086d565b92915050565b600080fd5b6108a581610863565b81146108b057600080fd5b50565b6000813590506108c28161089c565b92915050565b6000602082840312156108de576108dd610897565b5b60006108ec848285016108b3565b91505092915050565b600073ffffffffffffffffffffffffffffffffffffffff82169050919050565b6000610920826108f5565b9050919050565b61093081610915565b82525050565b600060208201905061094b6000830184610927565b92915050565b600081519050919050565b600082825260208201905092915050565b6000819050602082019050919050565b6000610988826108f5565b9050919050565b6109988161097d565b82525050565b60006109aa838361098f565b60208301905092915050565b6000602082019050919050565b60006109ce82610951565b6109d8818561095c565b93506109e38361096d565b8060005b83811015610a145781516109fb888261099e565b9750610a06836109b6565b9250506001810190506109e7565b5085935050505092915050565b60006020820190508181036000830152610a3b81846109c3565b905092915050565b610a4c8161097d565b82525050565b6000602082019050610a676000830184610a43565b92915050565b7f4e487b7100000000000000000000000000000000000000000000000000000000600052601160045260246000fd5b6000610aa782610863565b9150610ab283610863565b925082821015610ac557610ac4610a6d565b5b828203905092915050565b6000819050919050565b6000819050919050565b610af5610af082610ad0565b610ada565b82525050565b6000819050919050565b610b16610b1182610863565b610afb565b82525050565b6000610b288285610ae4565b602082019150610b388284610b05565b6020820191508190509392505050565b600082825260208201905092915050565b7f596f75277265206e6f74206f776e657200000000000000000000000000000000600082015250565b6000610b8f601083610b48565b9150610b9a82610b59565b602082019050919050565b60006020820190508181036000830152610bbe81610b82565b9050919050565b7f4e487b7100000000000000000000000000000000000000000000000000000000600052601260045260246000fd5b6000610bff82610863565b9150610c0a83610863565b925082610c1a57610c19610bc5565b5b828206905092915050565b7f4e487b7100000000000000000000000000000000000000000000000000000000600052603260045260246000fd5b6000610c5f82610863565b91507fffffffffffffffffffffffffffffffffffffffffffffffffffffffffffffffff8203610c9157610c90610a6d565b5b600182019050919050565b7f4e487b7100000000000000000000000000000000000000000000000000000000600052604160045260246000fd5b600081905092915050565b50565b6000610ce6600083610ccb565b9150610cf182610cd6565b600082019050919050565b6000610d0782610cd9565b9150819050919050565b7f4661696c20746f2073656e642065746865720000000000000000000000000000600082015250565b6000610d47601283610b48565b9150610d5282610d11565b602082019050919050565b60006020820190508181036000830152610d7681610d3a565b9050919050565b600081549050919050565b600081905092915050565b60008190508160005260206000209050919050565b610db18161097d565b82525050565b6000610dc38383610da8565b60208301905092915050565b60008160001c9050919050565b600073ffffffffffffffffffffffffffffffffffffffff82169050919050565b6000610e0f610e0a83610dcf565b610ddc565b9050919050565b6000610e228254610dfc565b9050919050565b6000600182019050919050565b6000610e4182610d7d565b610e4b8185610d88565b9350610e5683610d93565b8060005b83811015610e8e57610e6b82610e16565b610e758882610db7565b9750610e8083610e29565b925050600181019050610e5a565b5085935050505092915050565b6000610ea78286610b05565b602082019150610eb78285610b05565b602082019150610ec78284610e36565b9150819050949350505050565b60008160601b9050919050565b6000610eec82610ed4565b9050919050565b6000610efe82610ee1565b9050919050565b610f16610f1182610915565b610ef3565b82525050565b6000610f288285610f05565b601482019150610f388284610b05565b6020820191508190509392505050565b7f6d73672e76616c75652073686f756c642062652067726561746572207468616e60008201527f206f7220657175616c20746f20302e3031206574686572000000000000000000602082015250565b6000610fa4603783610b48565b9150610faf82610f48565b604082019050919050565b60006020820190508181036000830152610fd381610f97565b905091905056fea2646970667358221220f4d365830856f338484e372bfaf502b72cfeb2f92ac01587ddae3e4c76266aaf64736f6c634300080f0033",
  "immutableReferences": {},
  "source": "// SPDX-License-Identifier: SEE LICENSE IN LICENSE\npragma solidity ^0.8.15;\n\ncontract Lottery {\n    address public owner;\n    address payable[] public players;\n    uint256 public lotteryId;\n    mapping(uint256 => address) public lotteryHistory;\n\n    constructor() {\n        // contract  owner\n        owner = msg.sender;\n    }\n\n    function getBalance() public view returns (uint256) {\n        //  contract    return\n        return address(this).balance;\n    }\n\n    // storage players memory  return\n    function getPlayers() public view returns (address payable[] memory) {\n        return players;\n    }\n\n    function enter() public payable {\n        // msg.sender  ether  0.01  \n        require(\n            msg.value >= 0.01 ether,\n            \"msg.value should be greater than or equal to 0.01 ether\"\n        );\n        // contract  payable , players array \n        players.push(payable(msg.sender));\n    }\n\n    function getRandomNumber() public view returns (uint256) {\n        // abi.encodepacked  string  concat\n        return uint256(keccak256(abi.encodePacked(owner, block.timestamp)));\n    }\n\n    function getRandomNumberV2() public view returns (uint256) {\n        return uint256(keccak256(abi.encodePacked(block.difficulty, block.timestamp, players)));\n    }\n\n    function getRandomNumberV3() public view returns (uint256) {\n        return uint256(keccak256(abi.encodePacked(blockhash(block.number - 1), block.timestamp)));\n    }\n\n\n    function pickWinner() public onlyOwner {\n        uint256 index = getRandomNumberV3() % players.length;\n\n        // address payable -> address  ,  \n        lotteryHistory[lotteryId] = players[index];\n        lotteryId++;\n\n        address payable winner = players[index];\n        // players  , (0) size 0 \n        players = new address payable[](0);\n\n        // reentrancy attack ( )\n        //          \n        //  contract interaction        \n        \n        // players[index]  contract ether  \n        // call  send transfer     gas 2300  \n        // 2019 12 operation code gas  ,  call  \n        (bool success, ) = winner.call{value: address(this).balance}(\n            \"\"\n        );\n        require(success, \"Fail to send ether\");\n    }\n\n    modifier onlyOwner() {\n        require(msg.sender == owner, \"You're not owner\");\n        _;\n    }\n}\n",
  "sourcePath": "/Users/subin/projects/truffle/contracts/Lottery.sol",
  "compiler": {
    "name": "solc",
    "version": "0.8.15+commit.e14f2714.Emscripten.clang"
  },
  "schemaVersion": "3.4.13",
  "updatedAt": "2023-05-15T09:27:15.557Z",
  "devdoc": {
    "kind": "dev",
    "methods": {},
    "version": 1
  },
  "userdoc": {
    "kind": "user",
    "methods": {},
    "version": 1
  }
}